:020000040800F2
:1030000000500020FD5D0008AD5E00082998000812
:10301000AD5E0008AD5E0008AD5E00080000000077
:10302000000000000000000000000000710F010817
:10303000AD5E0008000000000D10010881DB0008F3
:10304000AD5E0008AD5E0008AD5E0008AD5E000834
:10305000AD5E0008AD5E0008AD5E0008AD5E000824
:10306000AD5E0008AD5E0008AD5E0008AD5E000814
:10307000AD5E0008AD5E0008D5E40008AD5E000856
:10308000AD5E0008AD5E0008AD5E0008AD5E0008F4
:10309000831E0108AD5E0008AD5E0008AD5E00084D
:1030A000AD5E0008AD5E0008AD5E0008D15B0008B3
:1030B000DD5B0008E55B0008F15B0008F1D7000864
:1030C00071DB0008F5D700086DDB0008AD5E000875
:1030D000AD5E000809E5000845E50008AD5E0008A2
:1030E000DD450008AD5E0008871E010800000000F5
:1030F00000000000000000000000000000000000D0
:0C31000000000000000000005FF808F173
:1031100010B5054C237833B9044810B10448AFF317
:1031200000800121217010BDC408002000000000B3
:10313000FC84010808B5064B1BB106480649AFF3ED
:1031400000800648016811B1054A02B1904708BDE8
:1031500000000000FC840108C8080020C40800200A
:103160000000000081F0004102E000BF83F0004356
:1031700030B54FEA41044FEA430594EA050F08BF12
:1031800090EA020F1FBF54EA000C55EA020C7FEAD6
:10319000645C7FEA655C00F0E2804FEA5454D4EB53
:1031A0005555B8BF6D420CDD2C4480EA020281EA1D
:1031B000030382EA000083EA010180EA020281EA55
:1031C0000303362D88BF30BD11F0004F4FEA0131A7
:1031D0004FF4801C4CEA113102D0404261EB4101B6
:1031E00013F0004F4FEA03334CEA133302D052423C
:1031F00063EB430394EA050F00F0A780A4F10104F8
:10320000D5F1200E0DDB02FA0EFC22FA05F2801831
:1032100041F1000103FA0EF2801843FA05F3594117
:103220000EE0A5F120050EF1200E012A03FA0EFC96
:1032300028BF4CF0020C43FA05F3C01851EBE371C0
:1032400001F0004507D54FF0000EDCF1000C7EEBDD
:1032500000006EEB0101B1F5801F1BD3B1F5001F1B
:103260000CD349085FEA30004FEA3C0C04F101043A
:103270004FEA445212F5800F80F09A80BCF1004F63
:1032800008BF5FEA500C50F1000041EB045141EAE5
:10329000050130BD5FEA4C0C404141EB010111F4E6
:1032A000801FA4F10104E9D191F0000F04BF014691
:1032B0000020B1FA81F308BF2033A3F10B03B3F16F
:1032C00020020CDA0C3208DD02F1140CC2F10C02FF
:1032D00001FA0CF021FA02F10CE002F11402D8BF5D
:1032E000C2F1200C01FA02F120FA0CFCDCBF41EA29
:1032F0000C019040E41AA2BF01EB0451294330BDF8
:103300006FEA04041F3C1CDA0C340EDC04F11404D4
:10331000C4F1200220FA04F001FA02F340EA0300AB
:1033200021FA04F345EA030130BDC4F10C04C4F1F1
:10333000200220FA02F001FA04F340EA03002946D1
:1033400030BD21FA04F0294630BD94F0000F83F41B
:10335000801306BF81F480110134013D4EE77FEAFE
:10336000645C18BF7FEA655C29D094EA050F08BF4A
:1033700090EA020F05D054EA000C04BF194610462B
:1033800030BD91EA030F1EBF0021002030BD5FEA6F
:10339000545C05D14000494128BF41F0004130BD97
:1033A00014F580043CBF01F5801130BD01F00045EB
:1033B00045F0FE4141F470014FF0000030BD7FEA5E
:1033C000645C1ABF194610467FEA655C1CBF0B4659
:1033D000024650EA013406BF52EA033591EA030F70
:1033E00041F4002130BD00BF90F0000F04BF002168
:1033F000704730B54FF4806404F132044FF000059B
:103400004FF0000150E700BF90F0000F04BF002113
:10341000704730B54FF4806404F1320410F0004579
:1034200048BF40424FF000013EE700BF42004FEA74
:10343000E2014FEA31014FEA02701FBF12F07F43F1
:1034400093F07F4F81F06051704792F0000F14BFEE
:1034500093F07F4F704730B54FF4607401F0004532
:1034600021F0004120E700BF50EA010208BF704789
:1034700030B54FF000050AE050EA010208BF70477E
:1034800030B511F0004502D5404261EB41014FF4E7
:10349000806404F132045FEA915C3FF4DCAE4FF0EB
:1034A00003025FEADC0C18BF03325FEADC0C18BFD2
:1034B000033202EBDC02C2F1200300FA03FC20FA23
:1034C00002F001FA03FE40EA0E0021FA02F1144470
:1034D000C1E600BF70B54FF0FF0C4CF4E06C1CEA85
:1034E00011541DBF1CEA135594EA0C0F95EA0C0FFA
:1034F00000F0DEF82C4481EA030621EA4C5123EA6D
:103500004C5350EA013518BF52EA033541F480119B
:1035100043F4801338D0A0FB02CE4FF00005E1FB4E
:1035200002E506F00042E0FB03E54FF00006E1FB98
:1035300003569CF0000F18BF4EF0010EA4F1FF04DB
:10354000B6F5007F64F5407404D25FEA4E0E6D411B
:1035500046EB060642EAC62141EA55514FEAC5202C
:1035600040EA5E504FEACE2EB4F1FD0C88BFBCF5A8
:10357000E06F1ED8BEF1004F08BF5FEA500E50F159
:10358000000041EB045170BD06F0004646EA01011F
:1035900040EA020081EA0301B4EB5C04C2BFD4EB51
:1035A0000C0541EA045170BD41F480114FF0000E4A
:1035B000013C00F3AB8014F1360FDEBF002001F0B8
:1035C000004170BDC4F10004203C35DA0C341BDC32
:1035D00004F11404C4F1200500FA05F320FA04F004
:1035E00001FA05F240EA020001F0004221F0004138
:1035F00010EBD37021FA04F642EB06015EEA430EAB
:1036000008BF20EAD37070BDC4F10C04C4F12005DA
:1036100000FA04F320FA05F001FA04F240EA02008D
:1036200001F0004110EBD37041F100015EEA430E5E
:1036300008BF20EAD37070BDC4F1200500FA05F27E
:103640004EEA020E20FA04F301FA05F243EA0203FD
:1036500021FA04F001F0004121FA04F220EA02000C
:1036600000EBD3705EEA430E08BF20EAD37070BD52
:1036700094F0000F0FD101F00046400041EB010132
:1036800011F4801F08BF013CF7D041EA060195F014
:10369000000F18BF704703F00046520043EB0303CE
:1036A00013F4801F08BF013DF7D043EA06037047BB
:1036B00094EA0C0F0CEA135518BF95EA0C0F0CD0C6
:1036C00050EA410618BF52EA4306D1D181EA03010C
:1036D00001F000414FF0000070BD50EA410606BF06
:1036E0001046194652EA430619D094EA0C0F02D14B
:1036F00050EA013613D195EA0C0F05D152EA033690
:103700001CBF104619460AD181EA030101F00041AD
:1037100041F0FE4141F470014FF0000070BD41F0F6
:10372000FE4141F4780170BD70B54FF0FF0C4CF4D0
:10373000E06C1CEA11541DBF1CEA135594EA0C0FEF
:1037400095EA0C0F00F0A7F8A4EB050481EA030E3C
:1037500052EA03354FEA013100F088804FEA033323
:103760004FF0805545EA131343EA12634FEA0222F1
:1037700045EA111545EA10654FEA00260EF00041B2
:103780009D4208BF964244F1FD0404F5407402D204
:103790005B084FEA3202B61A65EB03055B084FEA95
:1037A00032024FF480104FF4002CB6EB020E75EB92
:1037B000030E22BFB61A754640EA0C005B084FEABA
:1037C0003202B6EB020E75EB030E22BFB61A754637
:1037D00040EA5C005B084FEA3202B6EB020E75EB82
:1037E000030E22BFB61A754640EA9C005B084FEAFA
:1037F0003202B6EB020E75EB030E22BFB61A754607
:1038000040EADC0055EA060E18D04FEA051545EAF5
:1038100016754FEA06164FEAC30343EA52734FEA9E
:10382000C2025FEA1C1CC0D111F4801F0BD141EA17
:1038300000014FF000004FF0004CB6E711F4801F7C
:1038400004BF01430020B4F1FD0C88BFBCF5E06F5C
:103850003FF6AFAEB5EB030C04BFB6EB020C5FEA6C
:10386000500C50F1000041EB045170BD0EF0004EC1
:103870004EEA113114EB5C04C2BFD4EB0C0541EAF3
:10388000045170BD41F480114FF0000E013C90E6F0
:1038900045EA060E8DE60CEA135594EA0C0F08BFB4
:1038A00095EA0C0F3FF43BAF94EA0C0F0AD150EAB3
:1038B00001347FF434AF95EA0C0F7FF425AF104646
:1038C00019462CE795EA0C0F06D152EA03353FF46E
:1038D000FDAE1046194622E750EA410618BF52EAEB
:1038E00043067FF4C5AE50EA41047FF40DAF52EABF
:1038F00043057FF4EBAE12E74FF0FF3C06E000BF5C
:103900004FF0010C02E000BF4FF0010C4DF804CD68
:103910004FEA410C7FEA6C5C4FEA430C18BF7FEA28
:103920006C5C1BD001B050EA410C0CBF52EA430C56
:1039300091EA030F02BF90EA020F0020704710F1D6
:10394000000F91EA030F58BF994208BF90422CBF65
:10395000D8176FEAE37040F0010070474FEA410C5E
:103960007FEA6C5C02D150EA013C07D14FEA430C7C
:103970007FEA6C5CD6D152EA033CD3D05DF8040BED
:10398000704700BF8446104662468C46194663461F
:1039900000E000BF01B5FFF7B7FF002848BF10F1F6
:1039A000000F01BD4DF808EDFFF7F4FF0CBF01203B
:1039B00000205DF808FB00BF4DF808EDFFF7EAFFB7
:1039C00034BF012000205DF808FB00BF4DF808ED72
:1039D000FFF7E0FF94BF012000205DF808FB00BF67
:1039E0004DF808EDFFF7CEFF94BF012000205DF8F1
:1039F00008FB00BF4DF808EDFFF7C4FF34BF0120FE
:103A000000205DF808FB00BF4FEA4102B2F1E0433D
:103A100024BFB3F5001CDCF1FE5C0DD901F0004CB5
:103A20004FEAC0024CEA5070B2F1004F40EB830005
:103A300008BF20F00100704711F0804F21D113F131
:103A40003872BCBF01F00040704741F480114FEA6A
:103A50005252C2F11802C2F1200C10FA0CF320FAF3
:103A600002F018BF40F001004FEAC1234FEAD32310
:103A700003FA0CFC40EA0C0023FA02F34FEA43037A
:103A8000CCE77FEA625307D150EA01331EBF4FF003
:103A9000FE4040F44000704701F0004040F0FE401E
:103AA00040F40000704700BF80F0004002E000BF1B
:103AB00081F0004142001FBF5FEA410392EA030F19
:103AC0007FEA226C7FEA236C6AD04FEA1262D2EB63
:103AD0001363C1BFD218414048404140B8BF5B4268
:103AE000192B88BF704710F0004F40F4000020F001
:103AF0007F4018BF404211F0004F41F4000121F017
:103B00007F4118BF494292EA030F3FD0A2F1010260
:103B100041FA03FC10EB0C00C3F1200301FA03F19E
:103B200000F0004302D5494260EB4000B0F5000FC1
:103B300013D3B0F1807F06D340084FEA310102F180
:103B40000102FE2A51D2B1F1004F40EBC25008BF32
:103B500020F0010040EA03007047490040EB0000FC
:103B600010F4000FA2F10102EDD1B0FA80FCACF12B
:103B7000080CB2EB0C0200FA0CF0AABF00EBC2502A
:103B800052421843BCBFD0401843704792F0000F18
:103B900081F4000106BF80F400000132013BB5E76B
:103BA0004FEA41037FEA226C18BF7FEA236C21D0E1
:103BB00092EA030F04D092F0000F08BF0846704746
:103BC00090EA010F1CBF0020704712F07F4F04D114
:103BD000400028BF40F00040704712F100723CBF27
:103BE00000F50000704700F0004343F0FE4040F451
:103BF000000070477FEA226216BF08467FEA23630F
:103C00000146420206BF5FEA412390EA010F40F4F9
:103C1000800070474FF0000304E000BF10F0004345
:103C200048BF40425FEA000C08BF704743F096432C
:103C300001464FF000001CE050EA010208BF704747
:103C40004FF000030AE000BF50EA010208BF7047CE
:103C500011F0004302D5404261EB41015FEA010CE3
:103C600002BF84460146002043F0B64308BFA3F1DB
:103C70008053A3F50003BCFA8CF2083AA3EBC253BD
:103C800010DB01FA02FC634400FA02FCC2F12002DC
:103C9000BCF1004F20FA02F243EB020008BF20F013
:103CA0000100704702F1200201FA02FCC2F1200279
:103CB00050EA4C0021FA02F243EB020008BF20EA6E
:103CC000DC7070474FF0FF0C1CEAD0521EBF1CEA9C
:103CD000D15392EA0C0F93EA0C0F6FD01A4480EA8A
:103CE000010C400218BF5FEA41211ED04FF0006373
:103CF00043EA501043EA5111A0FB01310CF000409F
:103D0000B1F5000F3EBF490041EAD3715B0040EAC4
:103D1000010062F17F02FD2A1DD8B3F1004F40EB94
:103D2000C25008BF20F00100704790F0000F0CF067
:103D3000004C08BF49024CEA502040EA51207F3A2B
:103D4000C2BFD2F1FF0340EAC250704740F4000006
:103D50004FF00003013A5DDC12F1190FDCBF00F0F7
:103D600000407047C2F10002410021FA02F1C2F1A5
:103D7000200200FA02FC5FEA310040F1000053EA41
:103D80004C0308BF20EADC70704792F0000F00F08F
:103D9000004C02BF400010F4000F013AF9D040EA95
:103DA0000C0093F0000F01F0004C02BF490011F429
:103DB000000F013BF9D041EA0C018FE70CEAD15327
:103DC00092EA0C0F18BF93EA0C0F0AD030F0004CA7
:103DD00018BF31F0004CD8D180EA010000F000405B
:103DE000704790F0000F17BF90F0004F084691F019
:103DF000000F91F0004F14D092EA0C0F01D1420253
:103E00000FD193EA0C0F03D14B0218BF084608D11B
:103E100080EA010000F0004040F0FE4040F4000065
:103E2000704740F0FE4040F4400070474FF0FF0CF8
:103E30001CEAD0521EBF1CEAD15392EA0C0F93EA3F
:103E40000C0F69D0A2EB030280EA010C49024FEA91
:103E5000402037D04FF0805343EA111143EA10134A
:103E60000CF000408B4238BF5B0042F17D024FF402
:103E7000000C8B4224BF5B1A40EA0C00B3EB510FDD
:103E800024BFA3EB510340EA5C00B3EB910F24BFC6
:103E9000A3EB910340EA9C00B3EBD10F24BFA3EB4B
:103EA000D10340EADC001B0118BF5FEA1C1CE0D113
:103EB000FD2A3FF650AF8B4240EBC25008BF20F0C6
:103EC000010070470CF0004C4CEA50207F32C2BF1A
:103ED000D2F1FF0340EAC250704740F400004FF0B7
:103EE0000003013A37E792F0000F00F0004C02BFE8
:103EF000400010F4000F013AF9D040EA0C0093F0B2
:103F0000000F01F0004C02BF490011F4000F013B0B
:103F1000F9D041EA0C0195E70CEAD15392EA0C0F73
:103F200008D142027FF47DAF93EA0C0F7FF470AFAB
:103F3000084676E793EA0C0F04D14B023FF44CAFEE
:103F400008466EE730F0004C18BF31F0004CCAD183
:103F500030F000427FF45CAF31F000437FF43CAFBF
:103F60005FE700BF4FF0FF3C06E000BF4FF0010CE1
:103F700002E000BF4FF0010C4DF804CD4FEA4002C3
:103F80004FEA41037FEA226C18BF7FEA236C11D00D
:103F900001B052EA530C18BF90EA010F58BFB2EBC0
:103FA000030088BFC81738BF6FEAE17018BF40F040
:103FB000010070477FEA226C02D15FEA402C05D1F4
:103FC0007FEA236CE4D15FEA412CE1D05DF8040B79
:103FD000704700BF844608466146FFE70FB5FFF70C
:103FE000C9FF002848BF10F1000F0FBD4DF808EDC4
:103FF000FFF7F4FF0CBF012000205DF808FB00BFB5
:104000004DF808EDFFF7EAFF34BF012000205DF80E
:1040100008FB00BF4DF808EDFFF7E0FF94BF01205B
:1040200000205DF808FB00BF4DF808EDFFF7D2FF58
:1040300094BF012000205DF808FB00BF4DF808ED9B
:10404000FFF7C8FF34BF012000205DF808FB00BF68
:104050004FEA4002B2F1FE4F0FD34FF09E03B3EB95
:1040600012620DD94FEA002343F0004310F0004FD5
:1040700023FA02F018BF404270474FF0000070472B
:1040800012F1610F01D1420205D110F0004008BFCA
:104090006FF0004070474FF00000704742000ED2B2
:1040A000B2F1FE4F0BD34FF09E03B3EB126209D473
:1040B0004FEA002343F0004323FA02F070474FF029
:1040C0000000704712F1610F01D1420202D14FF09E
:1040D000FF3070474FF00000704700BF2DE9F041FE
:1040E000057890B000350646334818BF01250AF020
:1040F00079FF00243148A542314B0CBF2146802175
:1041000006904FF400500CBF4FF001084FF002082A
:104110004FF4807205930A9120234FF480670E902C
:1041200005A925480B920D930C970794CDF8208094
:1041300009940F940AF0CEFF1F4801210AF0F7FFFF
:104140004FF46021012702911E48694600948DF8C2
:1041500004508DF8057003948DF810800AF0A4FEC9
:10416000184804213A4603230AF0EFFE2DB1154802
:104170003178022203230AF0E8FE124801210AF0F6
:10418000C0FE104801210AF0B3FE0E480AF0C2FE3C
:104190000C480AF0C4FE0028FAD10A480AF0C3FE0F
:1041A00008480AF0C5FE0028FAD1064801210AF0A5
:1041B000C3FE10B0BDE8F08108000240E008002016
:1041C0004C24014000240140024B33F8100080B21F
:1041D000704700BFE00800202DE9FF41334B8046C7
:1041E000187800283BD0002425462646274608227A
:1041F00032210DEB0203532009F096FB9DF80910C4
:104200009DF80800013400EB01239DF80B109DF888
:104210000A001AB200EB01239DF80D109DF80C0066
:10422000E4B2BF181AB200EB01239DF80F10B618C4
:10423000202C1AB2154401F07F0001D00028D6D1FD
:104240001B4B97FBF4F796FBF4F695FBF4F5ADF8F2
:104250000070ADF80260ADF804501C701DE0322112
:10426000062202AB532009F05FFB9DF809209DF860
:1042700008109DF80B0001EB02239DF80A20ADF811
:10428000003002EB00219DF80C309DF80D00ADF8D8
:10429000021003EB0022ADF80420064A68464146AE
:1042A00012780AF077FCBDE8FF8100BFE408002027
:1042B000E508002000000020154B10B51B780446CF
:1042C0002D21532008227BB109F0F2FB31210A2273
:1042D000532009F0EDFB2C210C22532009F0E8FBC0
:1042E00053203821902209E009F0E2FB31210A2213
:1042F000532009F0DDFB53202C210A2209F0D8FBC2
:10430000044840F2091202800CB103490C7010BD40
:10431000E40800206A0200200000002037B5104B9E
:1043200005461A680F480C46002182428DF8071096
:1043300001D1002013E0532001220DF1070309F001
:10434000F3FA0028F5D09DF80710E529F1D12A7875
:104350000548064B064920601A70616001203EBD89
:1043600088030020001BB700B9420008E4080020C1
:10437000D94100081FB50446022106226B461820C9
:1043800009F0D2FA9DF800309DF8012098089DF8B8
:10439000023000EB02219DF8032098089DF80430BC
:1043A000ADF8081000EB02219DF805209808ADF843
:1043B0000A1000EB0221044AADF80C1002A82146B5
:1043C00012780AF0E7FB1FBD0100002010B50F2195
:1043D00008220446182009F06BFB0E221820102139
:1043E00009F066FB034B4FF480521A800CB102486F
:1043F000047010BD6A0200200100002037B50024BF
:1044000002AB054603F8014D18202146012209F0B0
:104410008BFA50B19DF80730FB2B05D103480449B6
:1044200028606960012000E020463EBDCD430008C1
:1044300075430008334B2DE9F0411C88324B5A89F3
:104440001E89A51A7543B3F91240B3F91420EF136E
:10445000BE18E50295FBF6F43F19A7F57A6202FB58
:1044600002F4B3F90480B3F902C00A257D43DF6189
:1044700002FB0CFCB3F90E7002FB08F2B3F90C80DE
:104480002413674304FB08F4241404EB6232941CE5
:10449000A210DC88083502F5004262432E114FEA73
:1044A000EC24B3F92050B3F9003004EBE72404EB1B
:1044B000830303FA05F39C1C144BD20B1B68A3EB7C
:1044C000A4044CF2503343FA05F3634303D45C0075
:1044D000B4FBF2F302E0B3FBF2F253001A125243C0
:1044E00040F6DE3462430A4C5C43241404EB22425F
:1044F00002F6CF6203EB221300B1036001B10E603C
:10450000BDE8F08116090020EC0800201009002009
:1045100043E3FFFF104B07B5187818B90F490A8815
:10452000531C0B80F621032201AB772009F0FCF924
:104530009DF805109DF804000A02094942EA00406E
:104540009DF80630B1F920201843C2F1080320FA83
:1045500003F0044908600EBDE6080020E8080020CA
:10456000EC080020100900200B4B07B5187818B98B
:104570000A490A88531C0B80F621022201AB7720DE
:1045800009F0D2F99DF804009DF80510044B41EAAA
:1045900000221A800EBD00BFE6080020E8080020B7
:1045A00016090020064B074893F8202000219201AD
:1045B0003432017002F0FC027720F42109F078BA5D
:1045C000EC080020E6080020034B00221A70772038
:1045D000F4212E2209F06CBAE608002010B54FF441
:1045E00080400AF003FE0128044605D14FF48040C4
:1045F0000AF00CFE014B1C7010BD00BFE608002045
:104600002DE9F0476B4B05461A686B488CB0824227
:1046100000F0CA80DFF8C0A19AF80080B8F1000F5E
:1046200040F0C480654F102102264FF400598DF8E8
:104630000A10384602A94FF480448DF80B60ADF89B
:10464000089008F0F1FE0423384602A98DF80A30DC
:10465000ADF8084008F0E8FE0E213046C7F810908B
:1046600008F01EFF0126082204A88DF815200494E6
:104670008DF814808DF816600AF07CFD28200F213B
:104680008DF80C0003A88DF80D108DF80E108DF824
:104690000F600AF0D5FB142009F0ABFA7720D02187
:1046A00032460DF1070309F03FF99DF80730444CFD
:1046B0000322552BE375228418BFC7F8149073D1D9
:1046C000D12132460DF10703772009F02DF99DF82D
:1046D0000700162200F00F01030921766376AA2154
:1046E00006AB772009F020F99DF818209DF81900F5
:1046F0009DF81B3040EA02219DF81A20218043EAF0
:1047000002209DF81C109DF81D20608042EA0123C4
:104710009DF81E009DF81F10A38041EA00229DF81D
:1047200021309DF82000E28043EA00219DF82220FC
:104730009DF82300218140EA02239DF824109DF872
:104740002520638142EA01209DF827309DF826103C
:10475000A08143EA01229DF828009DF82910E281FA
:1047600041EA00239DF82A209DF82B00238240EA8D
:1047700002219DF82D309DF82C20618243EA022011
:10478000104B41F2707146F67812A0828AF80060F0
:104790000D4829806A806B600C490D4A0D4BA8605A
:1047A000E9602A616B6101E0002000E001200CB0AB
:1047B000BDE8F08788030020001BB700001001400F
:1047C000EC080020C945000869450008A545000817
:1047D0001545000835440008140900202DE9F04F64
:1047E0004E4E4F4B85B077890391196832898446C4
:1047F00038020F1A87FB0201C00940EA4162CB115F
:10480000F188B48887FB01012404002514EB020819
:1048100045EB0309000A40EA01620B12B189748872
:1048200087FB0101E403002514EB020A45EB030BAF
:10483000C00D40EA41224FF4FA60CB1500218018E8
:1048400041EB0301CDE90001B0F5FA6F71F1000110
:1048500047DAA2FB024502FB03F605EB4607B80068
:1048600040EA9471A0002646241847EB0105691020
:104870004FEA3400A408B8EB000869EB0109A9105D
:1048800044EA8570BAEB000A6BEB010B25484FF048
:10489000FF31DDE9004584428D4122DA40F6AC501B
:1048A0000021801841EB03014143A0FB00236FF07E
:1048B000060003EB4103544200FB0344A2FB00014A
:1048C00018EB0008214449EB01090B24A2FB040169
:1048D00004FB031149104FEA3000BAEB000A6BEBFE
:1048E000010B114A1368A3FB0A0103FB0B11400DD6
:1048F00040EAC1224B15B2EB080263EB0903D20B6D
:1049000042EA4343BCF1000F01D0CCF800300398D9
:1049100008B10099016005B0BDE8F08F20090020C2
:104920001C09002024FAFFFF1809002007B5002108
:10493000032201AB772008F0F7FF9DF805009DF8F2
:10494000043001029DF8062041EA034010430EBDE9
:1049500008B5FFF7EBFF014B186008BD18090020F0
:1049600008B5FFF7E3FF014B186008BD1C090020E4
:1049700077204821012209F09BB877205821012295
:1049800009F096B8454B73B51A680446444882420C
:104990000FD010258DF80650424D02214FF40056DD
:1049A0008DF80710284601A9ADF8046008F03CFD19
:1049B0006E610A2009F01DF97720A02101220DF176
:1049C000030308F0B1FF002866D01E2101227720E2
:1049D00009F06EF84FF42F6009F000F90025A5F1F9
:1049E00060030026D9B20222772001AB8DF8046063
:1049F0008DF8056008F098FF9DF804209DF80500EB
:104A0000294B40EA0221E9520235102DE7D1DA891B
:104A100002F47F4502F00F00DD8132460123224976
:104A2000515A0232002918BF0023102AF7D113BBB4
:104A30001A4612F0010F1C494FEA620604D011F821
:104A400016104B40082104E031F8161083EA1123B8
:104A5000F8E713F4004F18BF83F4C0535B0001392B
:104A6000F7D10132102AE4D10F49C3F303330543D0
:104A70009842CD8101D000200EE00C4A42F2107025
:104A80002080608062600A480A490B4B0B4A206113
:104A9000A160E360626101207CBD00BF880300204B
:104AA000001BB70000100140200900207B490008CE
:104AB000514900086149000871490008DD470008B4
:104AC00037B5002402AB054603F8014D1E200A212C
:104AD000012208F029FF50B19DF80730482B03D17F
:104AE00025B10348057001E0204600E001203EBDED
:104AF0001000002030B585B00622054603216B4624
:104B00001E2008F011FF9DF801309DF800001A4C9E
:104B100043EA002108B2FFF781F82168FFF7D2F8D5
:104B2000FFF796FA9DF80220ADF808009DF8030003
:104B300040EA022318B2FFF771F8A168FFF7C2F844
:104B4000FFF786FA9DF805209DF80410ADF80C00DB
:104B500042EA012000B2FFF761F86168FFF7B2F89E
:104B6000FFF776FA054BADF80A00294602A81A7835
:104B70000AF010F805B030BD04000020100000203D
:104B80002DE9FF41634B644A186890420DD1042718
:104B90004FF480550226ADF804508DF807608DF86B
:104BA00006705E480DEB070108E05D49884207D1B9
:104BB00004A94FF480445B4821F80C4D08F034FC04
:104BC000322009F016F8002111221E2008F070FF93
:104BD000012160221E2008F06BFF642009F009F813
:104BE00002A8FFF787FF00240A2527462646012250
:104BF00002211E2008F05CFF322008F0FAFF02A814
:104C0000FFF778FFBDF90800BDF90A20BDF90C30A7
:104C100024188242B8BF1046F6189842B8BF03461F
:104C200013F5805F174409DD3F49013DC86880F4F2
:104C30000042CA60DBD14FF0010801E04FF00008EC
:104C40001E200021122208F033FF0A250221012232
:104C50001E2008F02DFF322008F0CBFF02A8FFF73E
:104C600049FFBDF90800BDF90A10BDF90C30241A3E
:104C70008142B8BF0846F61A9842B8BF034613F5FA
:104C8000805FC1EB070707DD2748013DC26882F45A
:104C90000041C160DAD101E04FF000082046FEF784
:104CA000BDFF01462148FFF7C1F8214D20F0004328
:104CB0002B603846FEF7B2FF01461C48FFF7B6F8F6
:104CC00020F0004068603046FEF7A8FF0146194812
:104CD000FFF7ACF820F00042AA60002170221E20ED
:104CE00008F0E6FE012120221E2008F0E1FE1E2031
:104CF0000221002208F0DCFE642008F07AFFB8F1FF
:104D0000000F04D14FF07E5129606960A960BDE8B1
:104D1000FF8100BF8803002000127A00000C0140D0
:104D2000001BB700001001400008014000406F4622
:104D30000400002001C05E461FB504460121062282
:104D40006B461C2008F0F0FD9DF800209DF8013016
:104D500043EA022040F38D01042391FBF3F29DF816
:104D600002009DF80310ADF8082041EA002242F34A
:104D70008D0090FBF3F19DF805209DF80400ADF83F
:104D80000A1042EA0021064A41F38D0090FBF3F33A
:104D9000214602A81278ADF80C3009F0FBFE1FBDC9
:104DA0001100002037B50421202302248DF80610BD
:104DB000054669441B48ADF804308DF8074008F0FB
:104DC00033FB2A2100221C2008F072FE0E211C2039
:104DD000224608F06DFE0F2103221C2008F068FE19
:104DE0002B2112221C2008F063FE2C211C202246BD
:104DF00008F05EFE2D2101221C2008F059FE2E2114
:104E000000221C2008F054FE05221C202A2108F054
:104E10004FFE05484FF4807202800DB1034B1D70A8
:104E20003EBD00BF000801406A02002011000020C2
:104E300013B5044610481149026800238A428DF8D0
:104E4000073001D1002015E01C200D2101220DF1B9
:104E5000070308F069FD0028F4D09DF807302A2BDD
:104E600001D01A2BEED10648064A0749206062603D
:104E70000B7001201CBD00BF88030020001BB70081
:104E8000A54D0008394D00083009002013B5022255
:104E900004461B2101AB682008F046FD9DF8042064
:104EA0009DF8053043EA022000F54E5110314FF4D1
:104EB0008C7291FBF2F3233323801CBD1FB5044693
:104EC0001D2106226B46682008F02EFD9DF800206B
:104ED0009DF8013043EA022001B2042391FBF3F272
:104EE0009DF802009DF80310ADF8082041EA002269
:104EF00010B290FBF3F19DF805209DF80400ADF889
:104F00000A1042EA0021064A08B290FBF3F3214658
:104F100002A81278ADF80C3009F03CFE1FBD00BFAE
:104F20001300002010B50446192008F062FE682026
:104F30001521002208F0BCFD10B9032008F000FF85
:104F40000D4B16211A78682042F0180208F0B0FDC7
:104F500017210022682008F0ABFD3D2101226820C6
:104F600008F0A6FD68203E21012208F0A1FD0CB149
:104F70000248047010BD00BF120000201300002082
:104F800038B5054619200C4608F033FE6820152177
:104F9000002208F08DFD18B3124B13481349144A30
:104FA000622C2B606860A960EA60124B0FD004D8B5
:104FB0000A2C12D0142C0CD10DE0BC2C04D0B4F56A
:104FC000807F06D1002009E00120187038BD022042
:104FD00004E0032002E0042000E005201870012016
:104FE00038BD00BF254F0008BD4E00088D4E00089B
:104FF0001844923112000020064B07491A7812B16A
:105000004FF4FF6301E04FF480530B8008B1034A73
:1050100010707047310900206A020020140000203F
:105020001FB50446432106226B46682008F07CFC2D
:105030009DF800209DF8013043EA022001B20423CC
:1050400091FBF3F29DF802009DF80310ADF80820E3
:1050500041EA002210B290FBF3F19DF805209DF883
:105060000400ADF80A1042EA0021064A08B290FB9B
:10507000F3F3214602A81278ADF80C3009F08AFD4E
:105080001FBD00BF160000201FB504463B210622AD
:105090006B46682008F048FC9DF800209DF8013020
:1050A0009DF8021043EA02209DF80320ADF80800A5
:1050B00042EA01239DF804009DF80510ADF80A307E
:1050C000054B41EA0022ADF80C2002A821461A78CF
:1050D00009F060FD1FBD00BF1400002013B5224A77
:1050E0004FF4005304460220ADF804308DF8070059
:1050F00013681E48042183428DF8061001D11C4814
:1051000003E01C498B4203D11B4801A908F08CF92C
:105110006B218022682008F0CBFC052008F069FD97
:1051200019210022682008F0C3FC6B2103226820AB
:1051300008F0BEFC37210222682008F0B9FC0F4AB3
:105140001A211278682008F0B3FC1B21182268206D
:1051500008F0AEFC68201C21102208F0A9FC0CB15C
:10516000074B1C701CBD00BF8803002000127A0092
:10517000000C0140001BB70000100140150000208A
:10518000160000202DE9F043814685B023200E460D
:105190001446984608F02DFD6820752101220DF176
:1051A000070308F0C1FB00286FD09DF80770682F37
:1051B0006AD106210A4602AB384608F0B5FB9DF8D5
:1051C0000B309DF80D5003F0010105F001004A007D
:1051D00042EA80059DF8090000F001031D4308D054
:1051E000012D01D12A481AE0022D0ED100232848B2
:1051F00013E00C21012238460DF1070308F094FB5F
:105200009DF8071011F00F0203D1052008F098FD5A
:1052100006E0042A1E4802D10123037000E0057055
:105220001C491D4AC9F800101C481D4B1D49C9F8EE
:10523000042030607360F160B8F1000F03D0144AAD
:10524000107888F80000142C174B15D004D8052CC2
:1052500016D00A2C0ED111E0BC2C08D0B4F5807FFA
:1052600003D0622C06D102210BE0002109E00120CD
:1052700018700AE0032104E0042102E0052100E0A7
:1052800006211970012000E0002005B0BDE8F08380
:1052900031090020F94F000889500008DD5000084E
:1052A0002150000818449231150000201FB5044613
:1052B000A82106226B46682008F036FB9DF80020E6
:1052C0009DF8013043EA022001B2042391FBF3F27E
:1052D0009DF802009DF80310ADF8082041EA002275
:1052E00010B290FBF3F19DF805209DF80400ADF895
:1052F0000A1042EA0021064A08B290FBF3F3214665
:1053000002A81278ADF80C3009F044FC1FBD00BFB4
:105310001700002010B50446642008F06AFC6820DD
:105320002321F02208F0C4FB10B9032008F008FD87
:10533000052008F05EFC064B68201A78202142F018
:105340000F0208F0B5FB0CB10248047010BD00BF9D
:10535000320900201700002037B5054619200C46F9
:1053600008F047FC68200F2101220DF1070308F027
:10537000DBFA9DF80730D32B16D10C480C490D4AA7
:105380004E2C28606960EA600B4B07D05D2C09D079
:10539000362C01D0002002E0402000E08020187070
:1053A000012002E0C020FAE700203EBD15530008AE
:1053B000AD520008DDE9A73132090020074BA1F505
:1053C0007A7153F82000838802684B434FF47A7057
:1053D00093FBF0F18BB21380704700BF340A0020BA
:1053E000024B53F82000026811807047340A0020F5
:1053F0002DE9F04FDFF828814FEA001558F80540F5
:105400008E468BB008EB0507114683469246204630
:105410007246019300F03CFBB96807F108024FF0B7
:10542000020C18237868ADF8141005A98DF8163011
:105430008DF817C00392CDF808C007F0F5FF039868
:10544000364E077906A80AF05CFB70220198DDF859
:1054500008C0ADF81820012100234FF4807206EB3C
:105460000509ADF81A10ADF81C30ADF81E00ADF806
:1054700020C0ADF824200C2F2BD8DFE807F0072A36
:105480002A2A102A2A2A192A2A2A2200204606A96C
:105490000AF030FA204608210AF068FB19E020469D
:1054A00006A90AF06BFA204608210AF067FB10E013
:1054B000204606A90AF0A6FA204608210AF068FB51
:1054C00007E0204606A90AF0DFFA204608210AF084
:1054D00067FB08EB0B118B7B1BB1204601210AF007
:1054E0002EFB204601210AF01EFB0C2F10D8DFE80E
:1054F00007F0070F0F0F090F0F0F0B0F0F0F0D0006
:10550000343404E0383402E03C3400E04034745178
:10551000A9F804A048460BB0BDE8F08F440900206C
:105520006C5D01081B4A1C4813881180C91A89B296
:1055300040F68C2291420380184B02D900221A7047
:105540007047A1F2EF2080B240F2DA52904218D8B0
:105550001B78072B15D81248032B20F81310114A7B
:1055600009D811480088884205D2012101FA03F3C5
:1055700010780343137012780F2A02D1094B0021CF
:1055800019700648094B0278511C017000201880E0
:10559000704700BF2A0A0020260A0020840A002043
:1055A0003409002033090020180000209C0E002040
:1055B0007FB5044601A80D4616460AF0ACFA002055
:1055C0000123ADF80A00ADF80C0001A92046ADF8A2
:1055D0000450ADF80660ADF808300AF01BFB7FBD43
:1055E0002DE9F743DFF858800501144E05EB080458
:1055F000A3688946761928210746B271606802229D
:105600008DF8061001A9ADF804308DF8072007F0D9
:105610000BFF55F80800217B0022FFF7C9FF204649
:1056200001224FF6FF7100F055FA204639464A46EE
:1056300000F010FA3046BDE8FE8300BF44090020A8
:105640006C5D010810B5134B00011B18DA795AB9CB
:1056500001221981DA71104B02221918097B18589E
:10566000BDE81040FFF7A4BF1C8959810B4A091BF4
:105670009C7989B222F8141000249981DC71064BC0
:1056800022461918097B1858FFF792FF0448048036
:1056900010BD00BF440900206C5D010834090020E2
:1056A0009C0E00202DE9F0410446028A484B807987
:1056B00061781A80002814BF0225002501B1013548
:1056C000444F57F8257000257A5DFF2A02F00F003D
:1056D00002F0F00309D122893F484049B2F5FA7F30
:1056E000016071D93E4B03606EE0A17811B1811E5B
:1056F000012965D9E17811B1011F032960D9E17948
:1057000009B181425CD012F0300F03D02278002A18
:1057100008BF0023217931B1A27922B9A0F1080193
:10572000012998BF802362792AB1A17919B9021F92
:10573000032A98BF802303F01001CAB23AB10022B5
:105740002849FFF74DFF284B08221A7038E003F074
:105750002001CAB242B1244E24493278FFF740FFFB
:105760003078411C31702BE003F04001CAB292B195
:1057700023891F4AB3F5FA7F94BF012108214A43C8
:105780001C4EB2FBF3F39AB2A38996F80080FFF7A0
:105790002FFE194B0EE01B0612D563891449174ED4
:1057A00091FBF3F292B2E389012196F80080FFF7B2
:1057B0001FFE134B43F8280008F1010886F800800B
:1057C00001350E2D80D186E70020BDE8F08100BFB5
:1057D00018000020245D0108300A0020E153000871
:1057E000BD53000825550008240A0020455600082E
:1057F00040420F00280A0020340A00202C0A002012
:10580000640A002008B5044B1A78824202D9034B7F
:105810001A68904708BD00BF280A0020300A0020FF
:10582000044B1A78824204D9034B53F820000268D3
:10583000118070472C0A0020640A0020014B33F8C5
:105840001000704734090020034B4FF4805208B118
:105850005A6170471A617047000C01400B4B9A89DE
:1058600098810A480289D207FBD58189C8B2074BC3
:105870001A8902F002018BB2002BF8D0034A118979
:1058800001F080039AB2002AF8D170470038004036
:10589000F8B5134B05469B890E461446ECB116B17C
:1058A00016F8017B00E0FF270D48022109F062FF96
:1058B0000028F9D00A48394609F057FF0848012165
:1058C00009F058FF0028F9D0054809F050FFC0B290
:1058D0000DB105F8010B013CE0E70120F8BD00BF68
:1058E000003800402DE9F047012188B04FF4804096
:1058F00009F0B2FE374C01214FF4804009F0C4FE9C
:1059000003214FF420401823ADF800008DF8031058
:10591000204669468DF802304FF0040807F084FDF8
:105920002D4E4FF4804220466946ADF800204FF4DA
:1059300080554FF0100A8DF8028007F075FD69461A
:105940002046ADF800508DF802A007F06DFD3046FE
:1059500009F0AEFE07214FF4007000230222ADF8DB
:105960001600ADF81C104FF00109304603A94FF4A2
:105970008277ADF80C30ADF81030ADF81A30ADF8D4
:105980001220ADF80E70ADF814901F46ADF818A0B7
:1059900009F0C0FE3046494609F0DBFE9F238DF832
:1059A00004308DF805708DF806708DF807700DEBDA
:1059B00008014246656102A8FFF76AFF25619DF86C
:1059C0000900B0F1EF014A4252EB010008B0BDE816
:1059D000F08700BF000C01400038004030B50024C3
:1059E0000E4D55F82450854202D00134E4B2F7E759
:1059F000A400E4B200200A4D2D5C8D4202D0451C6B
:105A0000E8B2F8E70019C0B20F2805D8054C04EB3E
:105A1000001083600171027330BD00BF4C5E01084D
:105A20005C5E0108542700200C2912D8DFE801F041
:105A300007111111091111110B1111110D00022182
:105A400004E0042102E0082100E0102101220AF014
:105A500084B8704738B504460D461346217B00686C
:105A60002A46FFF7BBFF2068217BBDE83840FFF7DF
:105A7000DBBF07B58DF80400012000238DF8060078
:105A80008DF8070001A88DF8053009F0D9F90EBD91
:105A90007FB5044601A80D4616460AF029F80B4BBF
:105AA0000B485E4301680023B1FBF6F2013D561E30
:105AB000204601A9ADF80850ADF80460ADF80A30F1
:105AC000ADF8063009F0CCFE7FBD00BF40420F00AC
:105AD0008C03002010B504460068FFF7D9FF20684A
:105AE00001210AF020F8607BBDE81040FFF7C1BF3C
:105AF00000230C4A52F82320824202D05A1CD3B20F
:105B0000F7E79B00D8B20023074AD25C8A4202D052
:105B10005A1CD3B2F8E71818044BC1B203EB0110BA
:105B2000704700BF4C5E01085C5E010854270020EE
:105B300038B5022104460AF016F9012820460BD197
:105B400002210AF01BF920460021FFF7D1FF05468C
:105B500020460AF0FBF834E004210AF004F9012899
:105B600020460BD104210AF009F920460421FFF751
:105B7000BFFF054620460AF0ECF822E008210AF0B3
:105B8000F2F8012820460BD108210AF0F7F8204648
:105B90000821FFF7ADFF054620460AF0DDF810E0CA
:105BA00010210AF0E0F8012810D1204610210AF057
:105BB000E5F820460C21FFF79BFF054620460AF03A
:105BC000CEF8AB6801460BB1287B984738BD000082
:105BD0000148FFF7ADBF00BF002C01404FF08040EF
:105BE000FFF7A6BF0148FFF7A3BF00BF00040040B6
:105BF0000148FFF79DBF00BF0008004010B5084CEA
:105C00004FF48041204609F0E1FB0A2007F0F1FF44
:105C100020464FF48041BDE8104009F0D5BB00BFDD
:105C20000010014010B54FF400410446064809F049
:105C3000CDFB0120FFF708FE2046FFF70FFE0020F6
:105C4000FFF702FE002010BD0010014010B54FF418
:105C500000410446064809F0B7FB0120FFF7F4FDB8
:105C60002046FFF7FBFD0020FFF7EEFD002010BDF2
:105C70000010014038B5044641F04000FFF7D2FF64
:105C8000054644F08000FFF7CDFF284380B238BDC1
:105C9000094B70B5062606FB003600242546301950
:105CA00010F8C00CFFF7D2FF013445EA0001062CC2
:105CB0008DB2F4D1284670BD1A0000200846FFF7C7
:105CC000E7BF10B54FF4FC74013C0020A4B2FFF70D
:105CD000BDFF002CF8D1204610BD00002DE9F34196
:105CE000204C4FF480464FF003081027204601A9AE
:105CF0004FF40045ADF804608DF806808DF807700C
:105D000009F012FB01A92046ADF804508DF8068079
:105D10008DF8077009F008FBFFF7E4FD0020FFF79E
:105D200093FD2046314609F04FFB2946204609F0F5
:105D30004DFBFFF763FF2120FFF774FFC620FFF73D
:105D400071FF0620FFF76EFF1320FFF76BFF202087
:105D5000FFF768FF0C20FFF765FFFFF7B2FFBDE814
:105D6000FC8100BF001001400CB437B5062250433F
:105D700006AB53F8044B00F0FE000193FFF77AFFE7
:105D80000549054622460020019B08F005FD2846EE
:105D9000BDE83E4002B07047BD5C0008014B33F8DF
:105DA00020007047880A0020034B0022DA6008B107
:105DB00002490160704700BF042D00209D5D00086E
:105DC000072802D1034B01221A70034A42F820101F
:105DD000704700BFA80A0020880A0020054B1878E9
:105DE00030B10548002201681A704B1C0360012085
:105DF000704700BFA80A0020AC0A00201D481E49B9
:105E0000026800608A4200F01F80002100F004B8A0
:105E10001A4B5B584350043119481A4B42189A42A6
:105E2000FFF4F6AF184A00F003B8002342F8043B31
:105E3000164B9A42FFF4F9AF08F0EAFE0EF054FE5A
:105E400003F076FBFFF7FEBF114E12483060124898
:105E5000016821F070610160410201600F4C18205F
:105E600020600F490F4808600F48D0F800D0406804
:105E700000470000F04F0020EFBEADDE2085010896
:105E800000000020C4080020C4080020DC3F0020DF
:105E9000181002400900000004000140140C0140E9
:105EA000000C01404434434400F0FF1FFFF7FEBFE5
:105EB000F8B5174C06462378274673B907F088FED5
:105EC000144D2A683232904207D30120207007F027
:105ED00069FF07F07DFE2860F8BD3878B0B107F0A3
:105EE00077FE0C4C2168731898420FD3084A0020A3
:105EF000107007F057FF07F06BFE2060064801782E
:105F000009B14B1E0370054801220270F8BD00BFA5
:105F1000B10A0020B80A0020080F0020B20A0020B1
:105F200037B58DF8051022498DF807300B788DF8BC
:105F3000040002A88DF80620C21812F8044C0D4681
:105F4000443CE0B20A282CD81A49022B31F8104000
:105F500003D814B12046FFF7ABFF2B78022B0BD9E7
:105F6000154D2D6807F034FE021B954204D21049EE
:105F7000124B002008701870114802780146012A5F
:105F800000D094B90A4B1878022801D8421C1A7024
:105F9000002008700B49087003B0BDE8304007F0DE
:105FA00001BF3224022BD5D9D7E703B030BD00BFE3
:105FB000B30A0020605E0108B80A0020080F002024
:105FC000B20A0020B10A00202DE9F0413D4B044601
:105FD0005A7B3D4802B1012202704FF4007001F07B
:105FE00095F9D8B1394E3A4996F8AE50052000FBE4
:105FF00005F20B8819B291420DDD364F364A7F7893
:106000003FB196F8AF600127AD1968438142177020
:1060100001DD022111700BB92F480370202001F01F
:1060200055F960B1274A2D4B917A09B9D07A20B140
:10603000284AD17A09B9012000E000201870264BC7
:106040001A78022A02D14C204E211EE0012A07D1E3
:106050004D2153204C220B46BDE8F041FFF760BFB5
:106060001E490878012803D1532001464E2206E03C
:10607000154B1A78012A04D15320014602464D23BC
:10608000EAE7042C03D153204D210A460AE0022CF2
:1060900003D1532001464D2204E0012C04D15320AA
:1060A0004D214E224423D7E70D49087820B13220F4
:1060B000BDE8F041FFF7FCBE0A4B1870BDE8F041A7
:1060C00007F070BEC22D0020B50A00205428002021
:1060D0009C0E00205E2D0020B40A0020B00A002093
:1060E000080F0020B10A002070B50646B6FBF2F496
:1060F0000846154614B12046FFF7F6FF05FB146469
:10610000024B195D00F8011B70BD00BFF05F010874
:106110002DE9F041027803460130202AFAD0092AFD
:10612000F8D02D2A02D10346414D04E02B2A08BFA6
:1061300003464FF07E551E460024334616F8010BE9
:10614000A0F13007F9B209290DD83A492046FDF7E8
:10615000B9FD04463846FDF761FD01462046FDF7CE
:10616000A9FC0446E9E72E2817D1324F334616F82A
:10617000010B3038C2B2092A0FD8FDF74FFD39465E
:10618000FDF754FE01462046FDF794FC29490446DC
:106190003846FDF797FD0746E8E71878652801D0EF
:1061A000452839D15E782D2E02D19F1C012605E0AD
:1061B0002B2E01D05F1C00E09F1C00267B1E0027B9
:1061C00013F8012F303AD1B2092903D80A2000FB75
:1061D0000727F5E7B7F59A7F28BF4FF49A77B846B7
:1061E0004FF07E51B8F1070F07D908461249FDF765
:1061F00069FDA8F108080146F4E707F0070737B181
:1062000008460C49FDF75EFD013F0146F7E72EB158
:106210002046FDF70BFE04E04FF07E512046FDF7CF
:1062200051FD01462846FDF74DFDBDE8F08100BF58
:10623000000080BF0000204120BCBE4C10B5441EB1
:1062400014F8011F21B1034B186807F0D1FFF7E7DD
:1062500010BD00BF042D00200148FFF7EFBF00BFB5
:106260001560010810B50748FFF7E8FF0024064B4A
:1062700006481A19E15852680C3408F04DFBC02C3E
:10628000F5D110BD43600108145F01085960010891
:1062900070B507F09DFC274C274B4FF47A71B0FB8B
:1062A000F1F11A782548237808F036FB01F028F838
:1062B00005462348234902682348B2FBF1F108F060
:1062C0002BFB0024214B53F8241051B1012000FA7C
:1062D00004F0284202D01E4808F01EFB0134E4B24C
:1062E000F0E7022000F0F2FF98B11A4C1A49227828
:1062F0001A4851F8221008F00FFB2378022B08D11E
:106300001748047C1748002C0CBF6E216F2108F041
:1063100003FB1548FFF792FF144A148807F02AFC84
:106320000246134821464FF45F73BDE8704008F001
:10633000F3BA00BF69020020AC2D002061600108A3
:106340008C03002040420F009F600108C06D0108CF
:10635000BD600108D80F0020D45F0108C1600108AA
:10636000042D0020CB600108497801082E0F002081
:10637000CF60010838B50C68054620460EF044FE93
:10638000024628682146BDE838400EF06DBE000088
:1063900008B50948FFF752FF0121002000F032FF45
:1063A0000648FFF74BFF0A2007F023FC0020BDE85A
:1063B000084007F0E7BC00BF016101080B6101085C
:1063C0007FB504460EF020FE082824D100231E4984
:1063D000E25C086885186E7806F00301022908BFA0
:1063E000203AE2540133082BF1D10025665D1748AD
:1063F00031460EF02DFD28B10135601931460EF001
:1064000027FD18B11248FFF719FF1CE0082DEDD148
:10641000204600F057FE0F48FFF710FF00230E4AFA
:1064200004A9981890F808218818084A995C013343
:10643000082B00F80C1CF2D100208DF80C0001A9EB
:10644000064808F069FA7FBD940400200076010830
:106450001A6101083A610108182900205C600108EE
:1064600008B501F023FB01300CBF03480348BDE829
:106470000840FFF7E3BE00BF4F61010875610108E6
:106480002DE9F04105460EF0BFFD044601F0D4F8B9
:10649000064694B92A48FFF7D1FE2A4951F824103C
:1064A00049B1012202FA04F2324202D0264808F031
:1064B00033FA0134F1E7254821E0284624492246F1
:1064C0000EF0D2FD58B92348FFF7B8FE224C54F81D
:1064D000041F0029EFD01C4808F01EFAF7E72B78BC
:1064E0002D2B04D10135013C4FF0010801E04FF0A4
:1064F00000080026134850F8267027B91748BDE851
:10650000F041FFF79BBE2846394622460EF0ACFD0F
:10651000A0B9012000FA06F0B8F1000F03D001F095
:1065200083F80F4802E000F0FBFE0E48FFF786FEFE
:106530000D483946BDE8F04108F0EEB90136D9E71B
:1065400093610108785E0108BD600108497801087F
:10655000CB6B0108A6610108745E0108BB610108EC
:10656000D5610108DF6101085C60010810B50446CF
:106570000848FFF763FE084A0848094900230360FA
:1065800013700B7003F06EF92046BDE81040FFF762
:10659000FFBE00BFE8610108BC0A0020EC0A002031
:1065A0004411002008B50848FFF748FE012000F01C
:1065B000BFFE0648FFF742FE0A2007F01AFB002044
:1065C000BDE8084007F0DEBB006201080D6101086C
:1065D000F8B507460EF018FD044638B91A491B4BAA
:1065E0004A791B48511E53F8211028E038461949B2
:1065F00022460EF039FD60B91748FFF71FFE174C11
:1066000054F8041F19B1164808F086F9F8E7154840
:1066100005E000250D4B53F8256026B91248BDE86A
:10662000F840FFF70BBE3846314622460EF01CFDFF
:1066300001350028EED10448314645710B48BDE8CC
:10664000F84008F069B900BF18290020B85E0108B9
:106650001B620108CB6B01082F620108B45E0108C0
:10666000BD60010849780108426201085A620108C8
:1066700010B5044620460EF0C7FC10F0FF0F07D1FE
:106680000B490C4891F87813BDE8104008F044B964
:1066900020460EF0D7F9022808D8054B064C83F89F
:1066A00078030020014600F0ADFDE3E710BD00BF18
:1066B000182900206C6201089065010870B5044635
:1066C0000EF0A2FC08B9204830E020461F490FF028
:1066D00013F900242646254678B12CB1012C06D1A9
:1066E0000EF0B0F9064602E00EF0ACF905460020C7
:1066F000164901340FF000F9EEE70B2D05D91448C7
:106700000C21BDE8704008F007B9012C08DC114AE3
:10671000114832F915202946BDE8704008F0FCB850
:10672000A6F57A73B3F57A7F04D90C48BDE87040BA
:1067300008F0F2B80A482946324608F0EDF8054854
:1067400020F8156070BD00BF82620108FF77010864
:10675000BC620108342D0020E2620108FA620108DF
:106760001C63010838B505460EF04EFCC0B260B996
:1067700004461149114801EB4402D28F21460134ED
:1067800008F0CAF8152CF4D138BD28460EF05AF995
:10679000142804460ADC202128460EF059FB0EF08E
:1067A00051F9054B03EB4404E08738BD044815213B
:1067B000BDE8384008F0B0B854280020356301081F
:1067C00041630108931E222B88BF0A22031E10B5C5
:1067D0000C4603DA2D2001F8010B5842FFF784FC28
:1067E00000210170204610BD30B587B005460C462B
:1067F00003A800210C220EF06FFA28460021FDF7B5
:106800001DFC20B128462949FDF754F903E028462C
:106810002649FDF74DF92649FDF754FAFDF718FC16
:10682000054685EAE570A0EBE5700A226946FFF7A8
:10683000C9FF002D01DB202300E02D2368468DF8E1
:106840000C300EF0E1FB012807D130228DF80D202D
:106850008DF80E208DF80F200CE0022805D1302194
:106860008DF80D108DF80E1004E0032802D13020B1
:106870008DF80D00694603A80EF0C4FA03A80EF0C7
:10688000C3FBC51EEDB22A4603A920460EF05AFCF2
:1068900000236355204607490EF0B4FA03A92046A9
:1068A00049190EF0AFFA204607B030BD6F12033A17
:1068B00000007A441861010837B5037904460D4693
:1068C000052B34D8DFE803F003060A0D11148168A4
:1068D00009782DE0806890F9001029E08368198814
:1068E00026E08268B2F9001022E0816809681FE0A2
:1068F000806869460068FFF777FF0146114808F095
:106900000BF8F5B1E068FDF789F96946FFF76CFF10
:1069100001460D4808F000F82069FDF77FF9694647
:10692000FFF762FF0146084807F0F6FF09E0002183
:10693000064807F0F1FF25B10548E168226907F034
:10694000EBFF3EBDC8600108C76001086B6301082A
:10695000676301082DE9F04706460EF055FB054632
:1069600020B1012819D133782A2B16D14748FFF7D7
:1069700065FC002414266643454F4648F15907F04C
:10698000CBFFB8192946FFF797FF01344248FFF7BC
:1069900055FC682CEED1BDE8F08730463D210EF065
:1069A00057FA002857D0441C20460EF04BF8824678
:1069B0002046FFF7ADFB0027054614247C43DFF893
:1069C000D09054F8098040460EF01EFB4146024626
:1069D00030460EF049FB002835D14C44E068FDF705
:1069E0001DF901462846FDF71FFB002829D0206924
:1069F000FDF714F901462846FDF70CFB002820D0CE
:106A000020792279052818BF5546052A0FD8DFE8D6
:106A100002F003030606090CA1680D7007E0A268E6
:106A2000158004E0A068056001E0A1680D604146A2
:106A30001A4807F071FF20460021BDE8F047FFF734
:106A40003BBF174803E00137682FB6D11548BDE8B2
:106A5000F047FFF7F3BB0446142565430C4F31465E
:106A600055F8078040460EF0D1FD50B10948414627
:106A700007F052FF78190021FFF71EFF064807F0C4
:106A80004BFF0134682CE7D1BDE8F0876E63010845
:106A9000E06D01084D64010849780108836301082D
:106AA0008E630108B36301082DE9F043584885B0AF
:106AB000584C07F031FF5848FFF754FE6279574BA6
:106AC000511E574853F8211007F026FF2069002176
:106AD000FDF78CFA002858D10025266900213046A0
:106AE000FDF784FA00284CD101354E482946D4F8E8
:106AF0001490D4F81880E76907F00EFF30460021A3
:106B0000FDF77EFA10B1484807F006FF69463046A7
:106B1000FFF76AFE0146454807F0FEFE48460021A1
:106B2000FDF76EFA10B1404807F0F6FE6946484698
:106B3000FFF75AFE01463D4807F0EEFE40460021B1
:106B4000FDF75EFA10B1384807F0E6FE69464046A8
:106B5000FFF74AFE0146354807F0DEFE38460021C1
:106B6000FDF74EFA10B1304807F0D6FE69463846B8
:106B7000FFF73AFE01462E4807F0CEFE10340C2DEA
:106B8000ABD12C48691C07F0C7FE00F055FD2A4C1C
:106B9000064654F8041F19B1284807F0BDFEF8E76F
:106BA0000D46274850F8251049B1012202FA05F296
:106BB000324202D0234807F0AFFE0135F1E7154B12
:106BC000214ACE1896F808418B5C04A801310519BA
:106BD000082905F8103CF2D100241C4869468DF8BC
:106BE000084007F099FE14256543194E1948A95924
:106BF00007F092FE00217019FFF75EFE013416487F
:106C0000FFF71CFB682CEED105B0BDE8F08300BF98
:106C1000D06301081829002090650108B85E0108BA
:106C2000006401080B640108FF770108C8600108CF
:106C30005C60010813640108745E010825640108A2
:106C4000785E010833640108007601084064010899
:106C5000E06D010849640108497801082DE9F04315
:106C600089B004460EF0D0F9C6B2002E6AD1794838
:106C7000FFF7E4FA784C20690021FDF7B7F938BB3B
:106C800001367648314607F047FE206904A9FFF730
:106C9000ABFD0146724807F03FFE606904A9FFF7AB
:106CA000A3FD01466E4807F037FEA06904A9FFF76F
:106CB0009BFD01466A4807F02FFEE06904A9FFF733
:106CC00093FD0146674807F027FE10340C2ED2D101
:106CD0000025654C2F46A8464FF000091034B145F9
:106CE00014DA404654F8101CFCF7E4FE54F80C1C6F
:106CF00080462846FCF7DEFE54F8081C0546384658
:106D0000FCF7D8FE09F101090746E7E75748CDF837
:106D1000048002950397FFF791FA002401A82358F5
:106D2000534923F00040FDF789F95249524A04348F
:106D3000002814BF10460846FFF780FA0C2CEDD14E
:106D40004E4870E020464E4905220EF08DF938B9C4
:106D5000414B0022C1181030C0280A61F8D176E0FA
:106D60002046484904220EF07FF90546204605BB1F
:106D700020210EF06DF8002869D0461C30460EF038
:106D800043F92C460746404850F824500DB93F4877
:106D900049E030462946FAB20EF066F938B9204685
:106DA00002F002FE3A48294607F0B6FD47E00134FA
:106DB000E9E70DF047FE461E0B2E074643DC204652
:106DC00020210EF045F8054640B1451C2846FFF746
:106DD0009FF9214B3F01D851012400E00446284689
:106DE00020210EF035F8054640B1451C2846FFF736
:106DF0008FF91949013401EB061250612846202110
:106E00000EF026F8054640B1451C2846FFF780F9EC
:106E1000114B013403EB06118861284620210EF046
:106E200017F818B91B48FFF709FA10E00130FFF70F
:106E30006FF9094A032C02EB0616F061F2D11648ED
:106E4000FFF70CFF03E015480C2107F065FD09B0C2
:106E5000BDE8F0835B6401081829002086640108FE
:106E60008C6401085C6001082C29002090640108F2
:106E70000AD7233C57640108536401084978010884
:106E80009F640108A5640108B85E01084262010818
:106E9000AA640108BD64010890650108F76401084F
:106EA000F0B5694B87B01A783AB901201870674875
:106EB000FFF7C4F96648FFF7C1F9664C206806F091
:106EC00082FF002800F0BD80206806F081FF0928BD
:106ED0000146614A01D03F2851D1002517685F4C17
:106EE0002E462FB15E4821683A460EF0BDF810B923
:106EF000254606B926465B490C348C42F1D3C6B10F
:106F00003468D5F800E03B46E05C1EF8031081428F
:106F10000DD1534A41B92D2B06D820244E48D454C4
:106F200001330360D15404E0D0540133ECE74A4903
:106F30000B60494A14681CB1AE4201D13C4612E0D4
:106F40004948FFF77BF9AE4209D856F80C0BFFF71A
:106F500075F9404B0921186807F04AF9F3E73C48F6
:106F6000FFF76CF900243C4B18688442A5D23949DC
:106F70003B4A0868115D07F03BF90134F3E71368F9
:106F80002BB9042838D13648FFF7F0FA59E00C281D
:106F900001D136488CE70A2901D00D2948D12E4D60
:106FA0003348FFF74BF92E4C2A6832490023A3548B
:106FB0000493009103A8294910220C2303940DF097
:106FC00045FD054638B100680EF01EF80130AA688C
:106FD0002018904702E02848FFF730F900213022BE
:106FE0001F480DF079FE18481B4B027800211960EC
:106FF000002A7FF45FAF24E00C28CAD07F2903D198
:107000005BE72F2B3FF659AF1F297FF656AF7E293E
:107010003FF653AF13B920293FF44FAF104C0E4841
:107020000C4AE15401330360106807F0E1F844E7CB
:107030007F29E6D10A485C1E0021015514600F48E3
:1070400039E707B0F0BD00BF441100201F650108FB
:1070500057650108042D0020EC0A0020145F010888
:10706000BC0A0020D45F01085C6501086165010865
:1070700049780108756300086C6501088D65010891
:107080000E4B1A783A2A16D15888B0F55F7F12D184
:107090001979BE290FD193F879230020EF2A0CD15A
:1070A00013F8011B064A48409342F9D1D0F1010080
:1070B00038BF0020704700207047704700F8010873
:1070C0007CFB010870B50546441E14F8011F61B130
:1070D000064E30460DF0BCFE0028F6D0861B044854
:1070E000631B811981F80831EFE770BD0076010854
:1070F000182900202DE9F843FFF7C2FF10B90A2034
:1071000006F01EFE3A4C3B4920464FF45F720DF0EC
:1071100035FD94F878332046022B02D9002284F8FA
:10712000782390F87813C42202FB0105324E05F54E
:10713000967130460DF022FD96F82070F47F002302
:1071400003FB03F01938784300F6C4165E43664328
:1071500040F6C412294D96FBF2F125F813100133C5
:10716000072BEDD1244C224A94F821000A274743EB
:1071700094F82260B2F8D050B2F8D2804342C0F105
:10718000640E9CB25FFA8EFEC6F1640CC5EB080873
:10719000002322B2002A04DCB8BF014602DB012131
:1071A00000E0714602FB02F9494309FB06F999FB2D
:1071B000F1F1614451434FF00A0991FBF9F2B9181A
:1071C0000AB202FB08F14FF47A7291FBF2F10C4A19
:1071D0006918995202334C44182BA4B2D9D10648ED
:1071E000007803F039FCBDE8F84300F0D5BB00BFE0
:1071F0001829002000F8010854280020462E0020FD
:10720000762D00202C4B70B53A2206464FF45F7065
:107210001A705880BE25EF2200201D7183F8792353
:1072200083F87A0349B193F87813C42202FB01333F
:10723000224903F596700DF0A1FC00210D461E4A6F
:10724000885C0131B1F55F7F85EA0005F7D182F8EE
:107250007A53002507F0E0FF342007F0F1FF1848CB
:1072600008F044F8042811D1154C164B2046E1587B
:1072700008F012F8042805D0013507F0D9FF032DD6
:10728000E8D103E0104A04349442EED107F0D0FF75
:10729000032D02D0FFF7F4FE10B90A2006F050FDCE
:1072A000FFF728FF36B10F2014210122BDE87040FE
:1072B00003F012B970BD00BF182900205428002027
:1072C00000F801081831FE177CFB0108034B196810
:1072D00008420CBF00200120704700BFF00A0020C8
:1072E000024B1A6810431860704700BFF00A002074
:1072F000024B1A6822EA000018607047F00A00206A
:10730000014B1868704700BFF00A0020034B9968D2
:1073100008420CBF00200120704700BF1829002040
:10732000024B9A6810439860704700BF18290020EC
:107330002DE9F7430446FFF7A3FE10B1002C00F03F
:107340006081B14AB14D10685168B14C6B4603C3BE
:107350004FF45F72002128460DF0BEFCC4220021CC
:1073600020460DF0B9FC3A200321287008206971ED
:10737000FFF7D6FF1020FFF7D3FF2A232021A5F81F
:10738000EE3085F8F4102B2340F2DC514FF4FA7004
:10739000A5F8F60085F805312120A1F5C873FA2279
:1073A00085F8060103F54870A5F8F220A5F812113A
:1073B0006E22A5F8160140F27E414FF47A70002744
:1073C0004FF0010885F80421A5F814310422A5F82E
:1073D000D01001F52F73A5F8D40000F5CB714FF450
:1073E00016764FF4C870A5F8F06085F81021A5F85E
:1073F000D23085F87873A5F8F870A5F8FA70A5F87A
:10740000FC7085F8E27085F8E37085F8E470A5F803
:10741000E670A5F8E870A5F8EA7085F8ED7085F8D3
:10742000EC8085F8077185F8297185F82A7185F84F
:10743000187185F8197185F81A8140F2B453A5F8CE
:10744000D610A5F8DE004FF496406C31A5F8DA307E
:10745000C5F8240132231E20A5F8D810A5F8DC3089
:107460001946A5F8E030E0724FF4E133207355205F
:10747000C5F82031E07040F6AC530B20AB81607151
:107480001723142085F81C7185F81D7185F8287163
:1074900085F81B7163752825A375A0712D234FF006
:1074A000080E4FF00E09607450206373217184F848
:1074B00010E0A37684F8079027706570A570E775D3
:1074C000A7732776E7736776E0765A2020722375D4
:1074D000E07741234F4884F8203084F821104E4B48
:1074E0004E494FF00A094FF0640C4FF0780E84F8C3
:1074F0002C20606315224A4884F82F20216384F8E9
:10750000129084F81CC0657284F80AE084F81E802A
:1075100084F8237084F8247084F8257084F822702D
:10752000A4F8408027856785E78484F82D5084F887
:107530002E50A36384F83C80FFF7C4FDC8224FF4AB
:10754000966140F2D9303E4684F8687084F86970DC
:1075500084F86A5084F86B8084F86C7084F8AE907C
:1075600084F8AF20A4F8B010A4F8B2004FF4FA6287
:107570001DF807004FF47F73A2F5FA710137A4F8E4
:107580006E30A4F87020A4F8721084F874000834E7
:10759000082FEBD11E4C0123C822142184F8B430EB
:1075A00084F8B53084F8B630A4F8B82084F8BA105E
:1075B00084F8BC301E2064234FF49672282184F88E
:1075C000BB00A4F8BE30A4F8C020A4F8C210002468
:1075D0000E48002223181034C02C1A61F8D1002460
:1075E0001049C42260180A49C4340DF0C7FAB4F532
:1075F000137FF5D10020014603B0BDE8F043FFF74B
:1076000001BE03B0BDE8F083D05C0108182900205A
:1076100054280020F6287C3F3D0A773F9A99193F6D
:1076200009760108442A0020024B9A6822EA0000E9
:107630009860704718290020014B9868704700BF78
:107640001829002010B5FCF7E9FA00210446FCF7E0
:10765000F5FC08B1204601E004F100400549FCF7C3
:10766000E5FB0549FCF72EFB0AF0CCFE034B186046
:1076700010BD00BF8096184B35FA8E3C44020020A6
:1076800010B5044C00232070236106F0A1FA60615C
:1076900010BD00BF982C0020F8B5101A0C461F46EC
:1076A000FCF7BCFA0546381BFCF7B8FA174B079EE7
:1076B0001968FCF707FB294604462846FCF702FB3D
:1076C000214607462046FCF7FDFA01463846FCF7FE
:1076D000F1F90BF0DDF80E49FCF7F4FAFCF7DEFCEB
:1076E00006990860214605F100400AF03BFF094970
:1076F000FCF7E8FA0849FCF7DDF9FCF7A9FC0028DB
:10770000BCBF00F50C40A0303060F8BD4402002042
:107710002C7D8E3FA00CB34500A00C46F8B51D464D
:1077200014460E46FCF77AFA6968FCF7CBFA314644
:10773000FCF7C8FA2168FCF7BDF92060FCF788FC6B
:10774000ED68074605F10040FCF782FC0646284636
:10775000FCF77EFC31460246384607F0F9F8FCF7A4
:107760005DFA2060FCF774FCF8BD000010B504461B
:10777000002003460B49CA5C92B12E2A04D1013382
:1077800074B1C91800220A55064A0A21D25C48433E
:10779000A2F13001092901D8303880180133E9E716
:1077A00010BD00BFBC0B00202DE9F0412E4B93F81B
:1077B0001C0110B1012852D10AE02C4B0C20597841
:1077C0002B4A41432B4B5068595806F006FB43E0C7
:1077D000274D686806F006FB002840D0234C21782E
:1077E0002646012920D106F0F3F906466069321ACF
:1077F000632A37D92169042914D84FF00C0808FBF3
:1078000001F31C4F6868F95806F0E7FA607808FB46
:1078100000776868796806F0CBFA22696661511CC6
:1078200021611CE0022018E022693AB964780C2337
:107830005C4310496868095906F0CFFA33690B4C6C
:107840008B2B09D80C4A0A48D15C406806F0ABFA89
:1078500021694B1C236102E00320FFF711FF03485D
:1078600000214160BDE8F08118290020982C0020FB
:10787000042D002078770108EC76010810B51A4C29
:107880002378581E03282DD8DFE800F002021C06DA
:10789000BDE81040FFF788BF637860685A1C411C40
:1078A0000523D0B26160B0FBF3F103FB11026270FB
:1078B00006F08EF90D4B0E49A06000201870C872BA
:1078C00001200BE006F084F9A16840F6C412431AC7
:1078D000934207D92020FFF70BFD0420BDE810409C
:1078E000FFF7CEBE10BD00BF982C0020062E002052
:1078F0005E2D002010B50B4CE37A8BB10A4801785D
:1079000004290DD9094A0A4B10685168186059605A
:10791000FFF798FE0748084B028801211A8021735F
:1079200010BD00BF5E2D0020062E0020E82D002097
:10793000B82D0020902E0020B40B0020002370B53D
:107940001C460F4800211952142060430D4A0E4E68
:107950000E4D995200223250595335180C4E696021
:10796000AA60325035180B4E01346960AA600233A8
:107970003518022C32506960AA60E2D170BD00BF98
:10798000722D00202A0F00206C0B00208E2D00206D
:10799000200B0020080C002070B5204C204D607991
:1079A000FCF738F91F49FCF741FA2860E07BFCF747
:1079B00031F91C49FCF73AFA1B4E6860EE60A07979
:1079C000FCF728F91949FCF731FA194D2860207C99
:1079D000FCF720F91349FCF729FA6860A07EFCF750
:1079E00019F91449FCF722FAEE60A860E079FCF777
:1079F00011F90E49FCF71AFA0F4D2860607CFCF76C
:107A000009F90849FCF712FA6860E07EFCF702F910
:107A10000849FCF70BFAEE60A86070BD54280020FE
:107A2000980B00200000C8420000FA4400002041EA
:107A3000E40B002000007A445C0B002038B50546BA
:107A40000020FFF71DFE4FF48070FFF75FFC002859
:107A50001FD0104C657006F0BBF8A0600E480023E4
:107A600090F81C11636000290CBF01240324FFF768
:107A700093FF0C225543094B09495A59094823469B
:107A800006F070FC084948600120BDE83840FFF767
:107A9000F7BD38BD982C0020182900207877010800
:107AA000817C000800440040042D0020F8B51D4BE7
:107AB0001878032832D11C491C4E4C6800224FF420
:107AC00000754FF40047A6F58063E26235611F61DF
:107AD000154C606806F077F960B1144D4FF40076EC
:107AE0006E616068276806F073F90146384606F053
:107AF0005AF92E610C4C206806F065F90028E7D091
:107B00000B4D4FF4004694E881006E6106F060F979
:107B10000146384606F047F92E61D9E74FF0FF30AD
:107B2000F8BD00BF982C0020042D0020000C01405F
:107B300000080140F7B50368164C174D236009682B
:107B4000164E61600068FFF77DFD94E80C00144854
:107B50000196009095E80300FFF79EFD6B68114ABF
:107B600061683668C81A1660FCF758F80E4A0F4F5D
:107B70001168FCF7A7F8FCF76BFA296878602068B1
:107B80000B4A431A0B483B60B0F8BE100A4B166014
:107B90001980FEBDCC0B0020E82D0020300C002009
:107BA0003C0C0020B80B002044020020580C0020A0
:107BB000440C002054280020560C002044F250634E
:107BC000984203DDA0F50C40A03870470349884275
:107BD000BCBF00F50C40A030704700BFB0B9FFFF3C
:107BE000244BF0B51D68024616781446A9194B7847
:107BF000013203F00401CBB2002BF5D1221A022A84
:107C000009DD13B10A225343DBB210F8011B3039EE
:107C10005B18DBB2F2E70021844209D911B10A22D4
:107C20005143C9B210F8012B303A8918C9B2F3E7B1
:107C30002E2E11D10134042000220A267243267808
:107C4000AF197F7807F00407FFB217B1303A9219E5
:107C500001340138F1D100E000220748414364209B
:107C600000FB021106220548B1FBF2F100FB0310F4
:107C7000F0BD00BF9404002040420F0080969800A1
:107C80002DE9F04F9F4B91B093F81C11C4B201291C
:107C900000F0DC8002D3022940F0BE85242C07D1FD
:107CA000994A9A489A490023137003700B70C7E0F1
:107CB0002C2C02D02A2C40F08280944D924A2978B4
:107CC000944B157800205854934AB5B9187815701C
:107CD000472868D15978502965D19878472840F0CD
:107CE0008985D978472940F085851B79412B40F05B
:107CF00081850120107000F07DBD117801293AD1F5
:107D0000022D05D11846FFF76BFF844908604AE051
:107D1000032D07D11978532945D180480268534271
:107D2000036040E0042D05D11846FFF759FF7B4B57
:107D3000586038E0052D07D11B78572B33D1774990
:107D40004A68504248602EE0062D07D119787448E1
:107D5000302994BF00210121C17224E0072D04D1F4
:107D6000FFF704FD6F4A10701DE0092D1BD1FFF7CE
:107D7000FDFC6D4B16E0022915D1072D0CD1012019
:107D8000FFF7F4FC41F2184250434FF47A71674B0D
:107D9000B0FBF1F0188006E0082D04D10120FFF7B8
:107DA000E5FC634B1880584B5849013500202A2CBC
:107DB0001D7008703BD15F490120087040E00D2C18
:107DC0005C4A01D00A2C28D113780BB351490878AA
:107DD0004978A0F13003DAB2092A84BFA0F1370252
:107DE000D2B2A1F1300302F00F00DAB20001092A89
:107DF00084BFA1F13702D2B2454B02F00F01401807
:107E00001A78C1B2B2EB010CDCF1000050EB0C03AC
:107E1000484A002111707BB912E03C490B780E2BC7
:107E200003D83C48C45401330B70127842B9384B24
:107E30001A7854401C7003E037480378012B00D0B7
:107E40000023D80700F1358100F0E6BC3A4B002250
:107E50001978082900F2E084DFE801F00A0510181B
:107E600027377C95A100622C01D1022294E01A7080
:107E7000B52C40F0D1841878421C8DE02F4D304A4B
:107E8000032119702C7014702E4B0BE02C49042523
:107E90001D700A782B4BA5181878EAB210181870C4
:107EA000294B0A701C7000F0B7BC254A05251D70CF
:107EB000244B157819786419E4B2147064181C7096
:107EC000224BC0B2188000F0A7BC06221A701C4AD0
:107ED0001C4B157819786419E4B2147064181C707E
:107EE0001A4B198801EB002082B2B2F5007F01D84D
:107EF0001A8003E0002018800F4B187000221449EC
:107F000000F076BC18290020DC0B0020AB0B002011
:107F1000480B0020BC0B00205A0B0020E82D00204D
:107F20005E2D0020062E0020702D0020922D0020B6
:107F3000840F0020600C0020060C0020480C00205C
:107F4000A90B0020AA0B00201C0B0020B20B002064
:107F5000940B00205E495F4D0B782878E218D3B26D
:107F6000181828705C4D0B702A885C48C72A9CBF83
:107F70005B498C54511C8BB22B8005889D4240F08C
:107F80004B84072207E008251D70514B1978A14248
:107F900000F042840022534B1A7000F03DBC4D4D5E
:107FA0001A702878A04240F037844F4B1978062980
:107FB0003BD005D8022913D0032940F02D8423E0BB
:107FC000122947D0302940F027844549474B0A7988
:107FD0004349102A88BF10221A701D78002347E0F9
:107FE0003F4B434D9A68596818692A60414A696055
:107FF0004FF47A7590FBF5F13F4B10783F4D1980A7
:10800000E87201213E4A23E0354A557915F0010511
:1080100004D01079C11E4B4253EB0105354A15704F
:10802000002D39D13548C57236E02D4DEB7A13F06D
:10803000010304D0A87AC11E4A4252EB01032D4D20
:108040002B700BB92D48C37225492E4A91F82F1079
:10805000117021E0224D2C496869AA69088042F21A
:1080600010732A4892FBF3F505800121284AEFE7B7
:108070000C31AB4210DA11F8044C264811F8032CED
:108080001C54254C25481A5511F8012C0C781A540B
:10809000234A9C540133EBE7194A1378002B00F074
:1080A000BB831B4D2878002800F0B6830024147091
:1080B0002C701C4CA168E16005F08AFDA0602020B6
:1080C000FFF70EF9184B1A78012A2FD100202EE065
:1080D000A90B0020AA0B0020940B0020B20B00205B
:1080E000640C0020060C00201C0B0020072E002032
:1080F000E82D0020540C0020702D00205E2D002063
:10810000AC0B0020062E0020922D0020840F0020B2
:10811000490C00204C2D0020D72D0020F02D0020F0
:10812000342E0020982C0020A80E002001207D492C
:108130001870CB7A002B00F06F837B4A10780428EC
:1081400040F26A834E7806B90E730F7B17B90EB1F1
:10815000FFF7D0FB754D05212C78754E631C93FB02
:10816000F1F201FB1230734F287096F800C0724D87
:1081700007EB80020023714C71491E59DFF80CE2B5
:108180007048714F5E5096FBFEF1195007FB01607D
:10819000DFF8FC9103EB040A42F2107490FBF4F652
:1081A000B4B2176853F809601060C7EB0608404482
:1081B000052643F8090090FBF6F00EFB0101634829
:1081C000BCF1010F25F8024F195005D1023CB4F55E
:1081D000797F98BFCAF8001004331432082BCAD133
:1081E00005F0F6FC5A4D5B4C2A68801AFBF712FD2D
:1081F0005949FBF71BFE206005F0EAFC2860256862
:108200004FF07E512846FBF7FBFE08B94FF07E5534
:108210000CA90DAA4948514B25600091019203C851
:108220000CCBFFF739FA0C986423B0FBF3F24C49FE
:108230000D980A8090FBF3F34A4A3A481380037B77
:108240000BB90B80138048490A78002A36D0414F79
:108250004FF07E503968FBF7E9FD444D374E2B68EF
:1082600004463068C01AFBF7D9FC2146FBF72AFD0B
:10827000FBF7EEFE6A6871683D4D0746881AFBF70A
:10828000CDFC2968FBF71EFD2146FBF71BFDFBF724
:10829000DFFE04B237480225B0F902303FB2E118E0
:1082A00091FBF5F2B0F9001093B27A18324C92FBC0
:1082B000F5F18AB263802280438002801F4A2A4BF4
:1082C000012018705168294B106859601860154BCF
:1082D0001A7A1AB9DB79002B00F09E82274E284DBE
:1082E000284C01960095154F94E80C00FFF7D4F93F
:1082F00061687868244E081AFBF790FC1C4A1168E4
:10830000FBF7E0FCFBF7A4FE21683B68084A7060BD
:10831000C81A92F90010306001293BD0022940F0C0
:108320007B82F0E05E2D0020062E0020000C002055
:10833000F00E0020F40A0020DC0B0020E82D0020C5
:108340004C0C0020F80B0020806967FF500B0020C8
:10835000400C0020F40B002000007A44B82D0020CF
:10836000B62D0020C02D0020A80B0020D40B00202B
:1083700044020020AE0B0020020C0020300C002034
:108380003C0C0020CC0B0020580C0020809698005C
:10839000340C002000252C462E46DFF870B28A4FA0
:1083A0005BF82680DFF860924046FBF737FC3968BF
:1083B000FBF788FCFBF74CFE34F80930834AC01AFF
:1083C00081B2A1520FB2CDF80890DFF8449238463E
:1083D0000397FBF723FCD9F80010FBF773FCFBF7BE
:1083E00037FE7B4983B2142000FB0617DFF8FCA19F
:1083F000039ADAF8001002EB080008933A464B465D
:10840000FFF78CF9089B5BF82610DFF80882DAF892
:1084100000B0181824F8080058460891FBF706F831
:10842000D7F808A0CDE904015046FAF7FFFF694AE2
:10843000CDE9060192F8BA00FBF7ECFBFAF7F6FF7C
:108440005FA3D3E90023FBF745F802460B46002063
:108450006149FBF769F9DDE90423FAF789FE024671
:108460000B46DDE90401FBF75FF9089BCDE9040148
:1084700078680136181AFBF7D1FB5946FBF7D6FC92
:108480005146FBF715FBFAF7D1FF02460B46DDE933
:108490000401FBF71FF80B460246DDE90601FAF777
:1084A00067FEFBF7B1FA089AD9F808107A603861CC
:1084B000B860FBF707FCFBF7CBFD48494FF4FA62C5
:1084C00006F046FADDF808C034F8082034F80C301D
:1084D000313399B2622998BF0020801883B224F802
:1084E00008303F4940F6B83218B206F031FA384940
:1084F00028F804004A593B4802342A501435022E09
:1085000000F08A8149E72F68324D7C08B5F9C080B8
:10851000354DA04528BFA0462E881FFA88F80FFACF
:1085200088F033B298420BDD304A31491068FBF7CE
:10853000C9FBFBF78DFD81191FFA81F8A5F80080B2
:108540002C4C2D4E256830682C1A2046FFF736FB40
:108550000028D8BF404241F293139842CCBF00207C
:108560000120002858D02046FBF758FB2349FBF791
:10857000A9FB09F0BBFF06463846FBF74BFB01465B
:108580003046FBF79FFBFBF763FD1D4A1449108043
:1085900000B240F6B83206F0DBF9291848F6A045DB
:1085A000A94203DDA1F50C41A03904E00029BCBFBC
:1085B00001F50C41A031134801602FE0AFF30080BA
:1085C000182D4454FB211940980B00204A0B002021
:1085D000200B0020542800200000F03F30F8FFFF5F
:1085E00048F4FFFF080C0020560C0020F40B00207C
:1085F0000000C842300C0020440C0020D302373960
:10860000580B0020B80B0020020C0020580C002052
:10861000E40B00208E2D0020834F3D60824C00250E
:1086200023682C46C3F50C502830FBF7F7FA7F4936
:10863000FBF748FB074609F0E5FE0F90384609F0C6
:1086400055FF2F460E900EAE0FFA88F0FBF7E6FAB4
:1086500056F82710FBF736FB754A0646105FFBF706
:10866000DDFA01463046FBF723FAFBF7F1FCDFF8B1
:10867000FCA14FF47A7224F80A006E4900B206F0A9
:1086800067F981B20BB2DFF8E89124F80A101846B6
:108690000393FBF7C3FAD9F80010FBF713FBFBF7C2
:1086A000D7FC654A142606FB0726DFF8C8B10399F4
:1086B00080B2324606904B460846DBF80010FFF7C2
:1086C0002DF8DBF800C034F90A3009906046D6F87E
:1086D00008A00893CDF808C0FAF7A8FECDE9040178
:1086E0005046FAF7A3FEDFF890B1CDE90A019BF8F6
:1086F000BA00FBF78FFAFAF799FE49A3D3E90023F2
:10870000FAF7E8FE02460B4600204C49FBF70CF84E
:10871000DDE90423FAF72CFD0B460246DDE90401EE
:10872000FBF702F8089ACDE9040170680137101AC6
:10873000FBF774FADDF808C06146FBF777FB51469A
:10874000FBF7B6F9FAF772FE02460B46DDE90401C3
:10875000FAF7C0FE02460B46DDE90A01FAF708FD0A
:10876000FBF752F9089B099A73603061B060069E6E
:10877000D9F80810B618FBF7A5FAFBF769FC301812
:108780002F4E81B2A15308B240F6B8322D4906F0FF
:10879000DFF8294B3053EA582B4802342A5014355D
:1087A000022F5B467FF44FAF93F8BC1031B11E4AE5
:1087B00064211068254A90FBF1F010802449B3F839
:1087C000B830086898420DD9224A234B11681868BE
:1087D000081AFFF7F3F942F210720028B8BF4042BE
:1087E000904219DD1D4B1E4801211970028817495E
:1087F0000A8011E01B498A78522A7FF4D4AACB78E8
:108800004D2B7FF4D0AA087943287FF4CCAA164ACE
:1088100002211170FFF7C7BA11B0BDE8F08F00BF99
:10882000182D4454FB211940B80B0020D3023739CE
:10883000020C002018FCFFFF080C00200000F03F95
:108840008E2D002048F4FFFF200B0020642E002016
:108850003C0C0020300C0020440C0020F00E0020C6
:10886000B40B0020BC0B00205A0B00204A0B002048
:108870005C0B0020F40B002054280020AFF3008094
:108880002DE9F84F384E04463768384609F0BAFDEE
:108890000546384609F02AFE76688046304609F0DB
:1088A000B1FD8346304609F021FED4F80490064617
:1088B00029464846FBF706FAA768824641463846ED
:1088C000FBF700FA01465046FBF7F2F821688246B2
:1088D0005846FBF7F7F9414604464846FBF7F2F9DC
:1088E0003146FBF7EFF901462046FBF7E3F8314646
:1088F00004463846FBF7E6F92946FBF7E3F901465B
:108900002046FBF7D7F80146504609F02BFE1749E1
:10891000FBF7D8F9FAF78AFD11A3D3E90023FAF798
:1089200003FF134B044618680D46FAF77FFD024615
:108930000B4620462946FAF71BFC00220D4BFAF79E
:10894000F3FEFBF761F809F091FD81B20A0444BF20
:1089500000F5B47189B208B2BDE8F88FAFF30080BA
:10896000182D4454FB210940640D00200000E1440F
:108970005C0D0020000024400F4B10B51888FBF759
:108980004DF90E490446FBF79DF9FBF761FB0C49D5
:10899000088021460B48FBF749FA0B49FBF746FADA
:1089A0000A4A10600820FEF791FC18B1BDE810409B
:1089B00003F022B910BD00BF6A020020C903683F5E
:1089C000440D00200AE81C4100401C46CC2C00202D
:1089D0002DE9F04F0C68836889B0D0F800A0D0F87A
:1089E00004800646204603938B4609F00BFD07469C
:1089F000204609F07BFDDBF804408146204609F063
:108A000001FD0546204609F071FDDBF8082004460B
:108A10001046019209F0F6FC8346019809F066FDC4
:108A2000394602905846FBF74DF9394604900298B2
:108A3000FBF748F9594605904846FBF743F9029978
:108A400006904846FBF73EF9294607905846FBF743
:108A500039F901465046FBF735F921468346069819
:108A6000FBF730F901460598FBF724F8014640462C
:108A7000FBF728F901465846FBF71CF821468346C8
:108A80000498FBF71FF901460798FBF711F8014618
:108A90000398FBF717F901465846FBF70BF83060CF
:108AA000029905F10040FBF70DF901465046FBF72E
:108AB00009F9214683460798FBF704F90146049813
:108AC000FAF7F6FF01464046FBF7FCF80146584628
:108AD000FAF7F0FF214683460598FBF7F3F80146C5
